{
  "abi": [
    {
      "inputs": [
        {
          "internalType": "address",
          "name": "target",
          "type": "address"
        }
      ],
      "name": "AddressEmptyCode",
      "type": "error"
    },
    {
      "inputs": [
        {
          "internalType": "address",
          "name": "implementation",
          "type": "address"
        }
      ],
      "name": "ERC1967InvalidImplementation",
      "type": "error"
    },
    {
      "inputs": [],
      "name": "ERC1967NonPayable",
      "type": "error"
    },
    {
      "inputs": [],
      "name": "FailedInnerCall",
      "type": "error"
    },
    {
      "inputs": [],
      "name": "InvalidInitialization",
      "type": "error"
    },
    {
      "inputs": [],
      "name": "NotInitializing",
      "type": "error"
    },
    {
      "inputs": [
        {
          "internalType": "address",
          "name": "owner",
          "type": "address"
        }
      ],
      "name": "OwnableInvalidOwner",
      "type": "error"
    },
    {
      "inputs": [
        {
          "internalType": "address",
          "name": "account",
          "type": "address"
        }
      ],
      "name": "OwnableUnauthorizedAccount",
      "type": "error"
    },
    {
      "inputs": [],
      "name": "UUPSUnauthorizedCallContext",
      "type": "error"
    },
    {
      "inputs": [
        {
          "internalType": "bytes32",
          "name": "slot",
          "type": "bytes32"
        }
      ],
      "name": "UUPSUnsupportedProxiableUUID",
      "type": "error"
    },
    {
      "anonymous": false,
      "inputs": [
        {
          "indexed": false,
          "internalType": "uint64",
          "name": "version",
          "type": "uint64"
        }
      ],
      "name": "Initialized",
      "type": "event"
    },
    {
      "anonymous": false,
      "inputs": [
        {
          "indexed": true,
          "internalType": "address",
          "name": "previousOwner",
          "type": "address"
        },
        {
          "indexed": true,
          "internalType": "address",
          "name": "newOwner",
          "type": "address"
        }
      ],
      "name": "OwnershipTransferred",
      "type": "event"
    },
    {
      "anonymous": false,
      "inputs": [
        {
          "indexed": true,
          "internalType": "address",
          "name": "implementation",
          "type": "address"
        }
      ],
      "name": "Upgraded",
      "type": "event"
    },
    {
      "inputs": [],
      "name": "UPGRADE_INTERFACE_VERSION",
      "outputs": [
        {
          "internalType": "string",
          "name": "",
          "type": "string"
        }
      ],
      "stateMutability": "view",
      "type": "function"
    },
    {
      "inputs": [],
      "name": "eatSlice",
      "outputs": [],
      "stateMutability": "nonpayable",
      "type": "function"
    },
    {
      "inputs": [
        {
          "internalType": "uint256",
          "name": "_sliceCount",
          "type": "uint256"
        },
        {
          "internalType": "address",
          "name": "initialOwner",
          "type": "address"
        }
      ],
      "name": "initialize",
      "outputs": [],
      "stateMutability": "nonpayable",
      "type": "function"
    },
    {
      "inputs": [],
      "name": "owner",
      "outputs": [
        {
          "internalType": "address",
          "name": "",
          "type": "address"
        }
      ],
      "stateMutability": "view",
      "type": "function"
    },
    {
      "inputs": [],
      "name": "pizzaVersion",
      "outputs": [
        {
          "internalType": "uint256",
          "name": "",
          "type": "uint256"
        }
      ],
      "stateMutability": "pure",
      "type": "function"
    },
    {
      "inputs": [],
      "name": "proxiableUUID",
      "outputs": [
        {
          "internalType": "bytes32",
          "name": "",
          "type": "bytes32"
        }
      ],
      "stateMutability": "view",
      "type": "function"
    },
    {
      "inputs": [],
      "name": "refillSlice",
      "outputs": [],
      "stateMutability": "nonpayable",
      "type": "function"
    },
    {
      "inputs": [],
      "name": "renounceOwnership",
      "outputs": [],
      "stateMutability": "nonpayable",
      "type": "function"
    },
    {
      "inputs": [],
      "name": "slices",
      "outputs": [
        {
          "internalType": "uint256",
          "name": "",
          "type": "uint256"
        }
      ],
      "stateMutability": "view",
      "type": "function"
    },
    {
      "inputs": [
        {
          "internalType": "address",
          "name": "newOwner",
          "type": "address"
        }
      ],
      "name": "transferOwnership",
      "outputs": [],
      "stateMutability": "nonpayable",
      "type": "function"
    },
    {
      "inputs": [
        {
          "internalType": "address",
          "name": "newImplementation",
          "type": "address"
        }
      ],
      "name": "upgradeTo",
      "outputs": [],
      "stateMutability": "nonpayable",
      "type": "function"
    },
    {
      "inputs": [
        {
          "internalType": "address",
          "name": "newImplementation",
          "type": "address"
        },
        {
          "internalType": "bytes",
          "name": "data",
          "type": "bytes"
        }
      ],
      "name": "upgradeToAndCall",
      "outputs": [],
      "stateMutability": "payable",
      "type": "function"
    }
  ],
  "bytecode": {
    "object": "0x60a06040523060805234801561001457600080fd5b50608051610b6261003e600039600081816104540152818161047d01526105c30152610b626000f3fe6080604052600436106100a75760003560e01c8063a63b6cde11610064578063a63b6cde14610178578063ad3cb1cc1461018e578063da35a26f146101cc578063f2fde38b146101ec578063f63da92e1461020c578063f64d99781461022157600080fd5b806308329585146100ac5780633659cfe6146100c35780634f1ef286146100e157806352d1902d146100f4578063715018a61461011c5780638da5cb5b14610131575b600080fd5b3480156100b857600080fd5b506100c1610235565b005b3480156100cf57600080fd5b506100c16100de366004610925565b50565b6100c16100ef366004610956565b610296565b34801561010057600080fd5b506101096102b5565b6040519081526020015b60405180910390f35b34801561012857600080fd5b506100c16102d2565b34801561013d57600080fd5b507f9016d09d72d40fdae2fd8ceac6b6234c7706214fd39c1cd1e609a0528c199300546040516001600160a01b039091168152602001610113565b34801561018457600080fd5b5061010960005481565b34801561019a57600080fd5b506101bf604051806040016040528060058152602001640352e302e360dc1b81525081565b6040516101139190610a3c565b3480156101d857600080fd5b506100c16101e7366004610a6f565b6102e6565b3480156101f857600080fd5b506100c1610207366004610925565b6103fc565b34801561021857600080fd5b506100c1610437565b34801561022d57600080fd5b506002610109565b60016000541161027d5760405162461bcd60e51b815260206004820152600e60248201526d1b9bc81cdb1a58d95cc81b19599d60921b60448201526064015b60405180910390fd5b600160008082825461028f9190610ab1565b9091555050565b61029e610449565b6102a7826104ee565b6102b182826104f6565b5050565b60006102bf6105b8565b50600080516020610b0d83398151915290565b6102da610601565b6102e4600061065c565b565b7ff0c57e16840df040f15088dc2f81fe391c3923bec73e23a9662efc9c229c6a008054600160401b810460ff16159067ffffffffffffffff1660008115801561032c5750825b905060008267ffffffffffffffff1660011480156103495750303b155b905081158015610357575080155b156103755760405163f92ee8a960e01b815260040160405180910390fd5b845467ffffffffffffffff19166001178555831561039f57845460ff60401b1916600160401b1785555b60008790556103ad866106cd565b83156103f357845460ff60401b19168555604051600181527fc7f505b2f371ae2175ee4913f4499e1f2633a7b5936321eed1cdaeb6115181d29060200160405180910390a15b50505050505050565b610404610601565b6001600160a01b03811661042e57604051631e4fbdf760e01b815260006004820152602401610274565b6100de8161065c565b600160008082825461028f9190610ac4565b306001600160a01b037f00000000000000000000000000000000000000000000000000000000000000001614806104d057507f00000000000000000000000000000000000000000000000000000000000000006001600160a01b03166104c4600080516020610b0d833981519152546001600160a01b031690565b6001600160a01b031614155b156102e45760405163703e46dd60e11b815260040160405180910390fd5b6100de610601565b816001600160a01b03166352d1902d6040518163ffffffff1660e01b8152600401602060405180830381865afa925050508015610550575060408051601f3d908101601f1916820190925261054d91810190610ad7565b60015b61057857604051634c9c8ce360e01b81526001600160a01b0383166004820152602401610274565b600080516020610b0d83398151915281146105a957604051632a87526960e21b815260048101829052602401610274565b6105b383836106de565b505050565b306001600160a01b037f000000000000000000000000000000000000000000000000000000000000000016146102e45760405163703e46dd60e11b815260040160405180910390fd5b336106337f9016d09d72d40fdae2fd8ceac6b6234c7706214fd39c1cd1e609a0528c199300546001600160a01b031690565b6001600160a01b0316146102e45760405163118cdaa760e01b8152336004820152602401610274565b7f9016d09d72d40fdae2fd8ceac6b6234c7706214fd39c1cd1e609a0528c19930080546001600160a01b031981166001600160a01b03848116918217845560405192169182907f8be0079c531659141344cd1fd0a4f28419497f9722a3daafe3b4186f6b6457e090600090a3505050565b6106d5610734565b6100de8161077d565b6106e782610785565b6040516001600160a01b038316907fbc7cd75a20ee27fd9adebab32041f755214dbc6bffa90cc0225b39da2e5c2d3b90600090a280511561072c576105b382826107ea565b6102b1610862565b7ff0c57e16840df040f15088dc2f81fe391c3923bec73e23a9662efc9c229c6a0054600160401b900460ff166102e457604051631afcd79f60e31b815260040160405180910390fd5b610404610734565b806001600160a01b03163b6000036107bb57604051634c9c8ce360e01b81526001600160a01b0382166004820152602401610274565b600080516020610b0d83398151915280546001600160a01b0319166001600160a01b0392909216919091179055565b6060600080846001600160a01b0316846040516108079190610af0565b600060405180830381855af49150503d8060008114610842576040519150601f19603f3d011682016040523d82523d6000602084013e610847565b606091505b5091509150610857858383610881565b925050505b92915050565b34156102e45760405163b398979f60e01b815260040160405180910390fd5b60608261089657610891826108e0565b6108d9565b81511580156108ad57506001600160a01b0384163b155b156108d657604051639996b31560e01b81526001600160a01b0385166004820152602401610274565b50805b9392505050565b8051156108f05780518082602001fd5b604051630a12f52160e11b815260040160405180910390fd5b80356001600160a01b038116811461092057600080fd5b919050565b60006020828403121561093757600080fd5b6108d982610909565b634e487b7160e01b600052604160045260246000fd5b6000806040838503121561096957600080fd5b61097283610909565b9150602083013567ffffffffffffffff8082111561098f57600080fd5b818501915085601f8301126109a357600080fd5b8135818111156109b5576109b5610940565b604051601f8201601f19908116603f011681019083821181831017156109dd576109dd610940565b816040528281528860208487010111156109f657600080fd5b8260208601602083013760006020848301015280955050505050509250929050565b60005b83811015610a33578181015183820152602001610a1b565b50506000910152565b6020815260008251806020840152610a5b816040850160208701610a18565b601f01601f19169190910160400192915050565b60008060408385031215610a8257600080fd5b82359150610a9260208401610909565b90509250929050565b634e487b7160e01b600052601160045260246000fd5b8181038181111561085c5761085c610a9b565b8082018082111561085c5761085c610a9b565b600060208284031215610ae957600080fd5b5051919050565b60008251610b02818460208701610a18565b919091019291505056fe360894a13ba1a3210667c828492db98dca3e2076cc3735a920a3ca505d382bbca2646970667358221220f05f317defbf06949fa2a28d86264ff05e92c9f5f92f7d7f85283e05a8c6c61f64736f6c63430008140033",
    "linkReferences": {}
  },
  "methodIdentifiers": {
    "UPGRADE_INTERFACE_VERSION()": "ad3cb1cc",
    "eatSlice()": "08329585",
    "initialize(uint256,address)": "da35a26f",
    "owner()": "8da5cb5b",
    "pizzaVersion()": "f64d9978",
    "proxiableUUID()": "52d1902d",
    "refillSlice()": "f63da92e",
    "renounceOwnership()": "715018a6",
    "slices()": "a63b6cde",
    "transferOwnership(address)": "f2fde38b",
    "upgradeTo(address)": "3659cfe6",
    "upgradeToAndCall(address,bytes)": "4f1ef286"
  },
  "storageLayout": {
    "storage": [
      {
        "astId": 91,
        "contract": "contracts/PizzaV2.sol:PizzaV2",
        "label": "slices",
        "offset": 0,
        "slot": "0",
        "type": "t_uint256"
      }
    ],
    "types": {
      "t_uint256": {
        "encoding": "inplace",
        "label": "uint256",
        "numberOfBytes": "32"
      }
    }
  },
  "id": 2
}