{
  "abi": [
    {
      "inputs": [
        {
          "internalType": "uint256",
          "name": "_value",
          "type": "uint256"
        }
      ],
      "stateMutability": "nonpayable",
      "type": "constructor"
    },
    {
      "inputs": [],
      "name": "getValue",
      "outputs": [
        {
          "internalType": "uint256",
          "name": "",
          "type": "uint256"
        }
      ],
      "stateMutability": "view",
      "type": "function"
    },
    {
      "inputs": [],
      "name": "increment",
      "outputs": [],
      "stateMutability": "nonpayable",
      "type": "function"
    },
    {
      "inputs": [],
      "name": "value",
      "outputs": [
        {
          "internalType": "uint256",
          "name": "",
          "type": "uint256"
        }
      ],
      "stateMutability": "view",
      "type": "function"
    }
  ],
  "bytecode": {
    "object": "0x608060405234801561001057600080fd5b5060405161013838038061013883398101604081905261002f91610037565b600055610050565b60006020828403121561004957600080fd5b5051919050565b60da8061005e6000396000f3fe6080604052348015600f57600080fd5b5060043610603c5760003560e01c8063209652551460415780633fa4f245146057578063d09de08a14605f575b600080fd5b6000545b60405190815260200160405180910390f35b604560005481565b60656067565b005b600160008082825460779190607e565b9091555050565b80820180821115609e57634e487b7160e01b600052601160045260246000fd5b9291505056fea2646970667358221220f991ba507314cee732469d67805d1b0598d0f7c0265edc4514ebd7f1e928178c64736f6c63430008140033",
    "linkReferences": {}
  },
  "methodIdentifiers": {
    "getValue()": "20965255",
    "increment()": "d09de08a",
    "value()": "3fa4f245"
  },
  "storageLayout": {
    "storage": [
      {
        "astId": 172,
        "contract": "contracts/Sample.sol:Sample",
        "label": "value",
        "offset": 0,
        "slot": "0",
        "type": "t_uint256"
      }
    ],
    "types": {
      "t_uint256": {
        "encoding": "inplace",
        "label": "uint256",
        "numberOfBytes": "32"
      }
    }
  },
  "id": 3
}